:1000000058140020751C0000E51A0000711C000047
:10001000711C0000711C0000711C0000711C0000AC
:10002000000000000000000000000000711C000043
:10003000711C000000000000711C0000711C000019
:10004000C115000099160000AD17000099160000B8
:10005000AD170000000000000000000000000000DC
:100060000000000000000000000000000000000090
:100070000000000000000000000000000000000080
:100080000000000000000000000000000000000070
:100090000000000000000000000000000000000060
:1000A0000000000000000000000000000000000050
:1000B0000000000000000000000000000000000040
:1000C0000000000000000000000000000000000030
:1000D0000000000000000000000000000000000020
:1000E0000000000000000000000000000000000010
:1000F0000000000000000000000000000000000000
:1001000000000000000000000000000000000000EF
:1001100000000000000000000000000000000000DF
:1001200000000000000000000000000000000000CF
:1001300000000000000000000000000000000000BF
:1001400000000000000000000000000000000000AF
:10015000000000000000000000000000000000009F
:10016000000000000000000000000000000000008F
:10017000000000000000000000000000000000007F
:10018000000000000000000000000000000000006F
:10019000000000000000000000000000000000005F
:1001A000000000000000000000000000000000004F
:1001B000000000000000000000000000000000003F
:1001C000FFFFFFFFFFFFFFFFFFFFFFFFFFFFFFFF3F
:1001D000FFFFFFFFFFFFFFFFFFFFFFFFFFFFFFFF2F
:1001E000FFFFFFFFFFFFFFFFFFFFFFFFFFFFFFFF1F
:1001F000FFFFFFFFFFFFFFFFFFFFFFFFFFFFFFFF0F
:100200000348044B834202D0034B03B118477047A5
:10021000380100203801002000000000064B07498B
:10022000C91A891048BF0131491003D0044B0BB1E2
:1002300001481847704700BF3801002038010020EE
:100240000000000010B5064C237843B9FFF7D8FF33
:10025000044B13B10448AFF300800123237010BD99
:1002600058010020000000000027000008B5054BE1
:100270001BB105490548AFF30080BDE80840FFF712
:10028000CDBF00BF000000005C010020002700007F
:10029000F8B5D0E902E50446AEEB050740689742A1
:1002A0002844154408D80E463A46A5EB0E0501F041
:1002B00065FD2A466068F11901F060FDBFF35F8FAC
:1002C000E560F8BD2DE9F8434FF000090646884681
:1002D0001746D0E902243369151B9C4203F1FF3114
:1002E00025BF03F1FF339B180B1B1B1BBD4228BF0F
:1002F0003D469D4228BF1D46706841462A4620441F
:1003000001F03CFDB2682C44A24208BF0024A9447D
:10031000A8447F1BBFF35F8FF460002FDBD14846FA
:10032000BDE8F883F8B5164CA8220021204601F05C
:100330000BFD4FF40066002303211020114A124FD9
:10034000124D21616161A261E7612662A36263626D
:10035000E36222666566A0662367E3666367BFF3B0
:100360005F8F0B4B9C46A3F11000ACEB030213F91B
:10037000011D8342A154F8D1BFF35F8FF8BD00BFC8
:1003800084090020001E0000840100207401002068
:100390001C1E00002DE9F04FDFF8A4B006469BF8C4
:1003A00000308946532B154683B001D0FFF7BAFFC2
:1003B00006EB46040BEBC404E36E276F4FEA460AD4
:1003C0009F421FD8DB1B9D422A4628BF1A4612B9FE
:1003D0004FF0000812E090460AEB06030BEBC30354
:1003E000596E48463944174401F0C8FCB8F1000F73
:1003F000EED0B2440BEBCA0ACAF87070404603B0A4
:10040000BDE8F08FA26E616EA2EB0708A84528BF79
:10041000A846394442464846019301F0AFFCA16E1C
:10042000019B4744B942A5EB080214BFDB1B002720
:100430009A4228BF1A46002AD8D0C1449044CBE73C
:100440008409002010B50B46EFF311844FF0200112
:1004500081F311881946FFF79DFF84F3118810BDC1
:1004600038B5204B00EB400403EBC40EDEF82C4003
:10047000013000EB4000012C8C46154603EBC00018
:1004800005D0022C2AD0B4B10024204638BDDEF8B5
:100490002830DEF82440A3429CBFDEF820105B1811
:1004A000013B1C1B944228BF144661462246FFF7BD
:1004B000EFFE204638BDDEF82830DEF824209342D7
:1004C0009CBFDEF820105B18013B9A1A9542DCD8DD
:1004D0002A466146FFF7DCFE2C46D6E7BDE83840E9
:1004E000FFF7F0BE84090020F8B50B4B04461B78DB
:1004F0000D46532B164601D0FFF714FFEFF311877B
:100500004FF0200181F31188324629462046FFF73B
:10051000A7FF87F31188F8BD8409002010B5064CA9
:100520002378532B01D0FFF7FDFEE36E206FC01A36
:1005300018BF012010BD00BF84090020D0E90123AD
:1005400010B50446581C904207D82268D15403467F
:10055000E16862680131C4E902019A4200D010BD2D
:1005600021682069FFF7C0FFA368984215BF4FF0CC
:10057000FF330023E360A36010BD00BF2DE9F84FF7
:1005800091420F46DDE90A94154683461E4662D322
:100590000B464FF00108B3FBF5F39D4208F101084B
:1005A000F9D9B04538BFB04614F0010A02D1B9F10B
:1005B000000F37D1DBF80C30002B23DB012402E0E5
:1005C000013E05FB04F4012EFAD8B7FBF4F39D427B
:1005D000F7D9224E06E0AC42B4FBF5F30CD31C462F
:1005E000B7FBF3F3F156584604FB1377FFF7A6FF6A
:1005F000DBF80C30002BEEDABAF1000F02D0B9F1C3
:10060000000F09D1BDE8F88F20215846FFF796FF6B
:10061000DBF80C30002BF5DBC14509F1FF39F3D8CD
:10062000BDE8F88FA30711D420240CE021465846DA
:10063000FFF784FFDBF80C3009F1FF39002BE1DB19
:10064000B9F1000FB8D0C845F0D3B3E7002E14BFFE
:1006500020243024F7E74FF00108A2E7201E000015
:100660002DE9F04F00238024ABB00DF1280A05944A
:1006700081460C461746CDE90730CDF810A0069309
:1006800006E004A8FFF75AFF079B002BC0F2AD80DD
:1006900014F9011B002900F0A0802529F1D10026C2
:1006A000234613F9012BA2F123010D2908D8DFE815
:1006B00001F07F070707070707077B07830707770F
:1006C000A2F13001C9B209294FF000050FD805EB9E
:1006D000850502EB450593F900201C46A2F1300187
:1006E000C9B20929A5F1300503F10103EFD92E2A7A
:1006F00000F0FA804FF0000B94F9001021F0040094
:1007000068281C465CD02529BBD05839CBB2202B99
:10071000BAD82029B8D801A353F821F0F307000074
:10072000890600008906000089060000890600008D
:10073000890600008906000089060000890600007D
:100740008906000089060000D50800006D08000039
:10075000890600008906000089060000890600005D
:10076000890600008906000089060000890600004D
:100770008906000089060000890600004F08000075
:10078000890600008906000029080000890600008B
:100790000F0800008906000089060000F30700002A
:1007A0001C4646F002067BE71C4646F0040677E747
:1007B0001C4646F0080673E71C4646F001066FE744
:1007C00014F9011B21F00403682B9CD114F9011BBF
:1007D00021F00403682B96D1F2E7079B002B04DD80
:1007E000069C002C40F09980234418462BB0BDE8AD
:1007F000F08F102238685B4601680430CDE900565E
:1008000038600DEB0200FFF7B9FE079B3DE7386843
:100810005B4601680430CDE900560A22386004A81E
:10082000FFF7ACFE079B30E73B681A1D3A601D6876
:1008300015F9011B00293FF427AF04A8FFF77EFE3E
:10084000079B002BF4DA18462BB0BDE8F08F082385
:10085000102200253868016804303860CDE9003581
:100860000DEB0200FFF78AFE079B0EE73B684FF097
:1008700001081A6804333B6082EAE273A3EBE27377
:10088000092B039209DD5C481946A0FB03C36329C9
:1008900008F101084FEAD303F6DCD84538BFD84643
:1008A000002D43D1079900250B4600299DDB039BB2
:1008B000002B62DB730770D406F00303022B71D0A8
:1008C0005B460A22CDE90056039904A8FFF756FEBD
:1008D000079BDAE63B6804A81A1D93F900103A60FA
:1008E000FFF72CFE079BD0E694F90110A1F130022E
:1008F000D2B2092A4DD81C464FF0000B0BEB8B02ED
:1009000001EB420214F9011FA2F1300BA1F13003F7
:10091000DBB2092BF2D9631CF0E622465146484669
:100920000393FFF7E1FD039B23445EE7039A06F080
:100930000203002A14DB720712D4002B49D0BBF14A
:10094000000F17D0F00715D4A5B1A84512D2202169
:1009500004A8FFF7F3FD079B013D002BF4DA44E701
:10096000013D13B1BBF1000F04D0F20702D4002DFA
:10097000EAD197E707990B4697E75B422D2104A838
:100980000393FFF7DBFD079900290B46FFF62DAF18
:1009900092E74FF0000B0133B0E62B2104A8FFF7DC
:1009A000CDFDF0E7BBF1000F8AD1002D88D0454581
:1009B0001FD9302104A8FFF7C1FD0799013D002987
:1009C0000B46FFF612AF002DF1D10029FFF60DAF57
:1009D00076E7F107B8D5079900290B46FFF605AF72
:1009E00006F00303022B7FF46BAFBBF1000FDED0E8
:1009F00066E70B46E9E700BFCDCCCCCC0EB400B522
:100A000082B003AB53F8041B01AA0193FFF728FE41
:100A100002B05DF804EB03B0704700BF2DE9F04F62
:100A20000024924A8DB0924B92E8030004AA82E817
:100A3000030093E80300069003A8ADF81C10CDE96D
:100A40000844CDE90A440394ADF81E4001F00EF8C5
:100A50009DF80D109DF80E209DF80F30CDE9002176
:100A60002046844A8449FFF7C9FF84492046FFF79E
:100A7000C5FF8349834800F0C7FB002840F0E780AA
:100A800081490020FFF7BAFF4FF400620321DFF82D
:100A90004CB2DFF80C920BF10C03ABF8052004AA62
:100AA000CBF80010794D92E80300794E83E80300FB
:100AB000DFF8D0A103E0337841F288346BBBFFF755
:100AC0002DFD0028F7D0102208A90020FFF7BAFC5E
:100AD00070490020FFF792FF5A460021504600F06F
:100AE00031FB044600285AD141F2883401E0013C30
:100AF00067D02B78002BFAD00027674938462F7033
:100B0000FFF77CFF38466549FFF778FF3378CDE97A
:100B10000877CDE90A77002BD1D04FF00008604A62
:100B20006049404686F80080FFF768FF08225C486D
:100B300004A901F011F9074638BB5B49FFF75EFFD6
:100B400003234FF4006259490B6006ABA1F805205E
:100B50000A4693E8030089E803003946504600F04E
:100B6000F1FA804610B146E0013C55D02B78002BBD
:100B7000FAD0002C50D000204D49FFF73FFF002352
:100B80002B700023C9E9003399E70822444806A9DD
:100B900001F0E2F810BB4749FFF730FFF1E7002012
:100BA000454B464A4649FFF729FF504600F068FA90
:100BB00000283ED1224643490020FFF71FFF00BE18
:100BC00092E7414B20463D4A3D49FFF717FF01227E
:100BD00020463C49FFF712FF00BE8DE73B4B4046E5
:100BE000364A3749FFF70AFF012240463549FFF7E9
:100BF00005FF00BEC5E738462F4B304A3049FFF7A6
:100C0000FDFE504600F03CFAD0B942462D49002086
:100C1000FFF7F4FE00BEA9E72B4B284A2849002025
:100C2000FFF7ECFE012227490020FFF7E7FE00BE98
:100C3000A1E7274B274A22490020FFF7DFFEB9E74B
:100C40003846234B234A1E49FFF7D8FEDDE7054609
:100C5000214B2046194A1A49FFF7D0FE2A46204662
:100C60001849FFF7CBFE00BE0AE700BFF4230000DF
:100C700018240000301E0000341E00000C2000006C
:100C800020240000600A0020E0210000560A002015
:100C9000550A00202422000074220000982200003F
:100CA000380A0020DC220000FC2200002C0A002070
:100CB0005C2300008C230000402200000C24000074
:100CC000A4210000C021000034230000C423000040
:100CD00058220000002400008C210000400A00205F
:100CE0008388B3F5806F2BD006D9B3F5006F08D198
:100CF00001221D4B1A707047202B18D8012B0ED8DB
:100D00007047FDD3B3F5005F05D0B3F5804F02D037
:100D1000B3F5805FF4D10122144B1A707047144A66
:100D2000023B9BB222FA03F3DB07F4D47047B3F51E
:100D3000807FF0D0B3F5007FEDD0802BE0D1EAE7E3
:100D400010B584464FF0010E0A4B4069DCF81810CC
:100D5000DCF81C20084C83F800E0DCF820300FC4DD
:100D6000DCF82400206010BD560A0020540A002040
:100D700045400040550A00202C0A0020022800D0DF
:100D800070470249024800F0D5B800BF582400005F
:100D9000580A002008B5FFF741FE002008BD00BF3B
:100DA0002DE9F84F0388DBB182464FF0000B4FF07E
:100DB0000109DFF8D0800024304D4FEACB07DAF884
:100DC000043035F8022BD919898891420AD00134B0
:100DD000032CF4D1BAF800300BF1010B5B45EAD8D3
:100DE000BDE8F88FDB5909FA04F603F0B853B3F104
:100DF000807FF6B298F8BB3413D0334231D1204A09
:100E000004F1200612F81630DB09E0D012F8163093
:100E100001216FF3C713C82002F8163000F036FE28
:100E2000D5E7334211D0164A04F1200112F81130EF
:100E3000DB09CCD112F81130C82043F0800302F84E
:100E40001130012100F022FEC1E7012000F0E6FE92
:100E500098F8BB340120334388F8BB3400F0AEFE71
:100E6000E1E7012000F0DAFE98F8BB34012023EA24
:100E7000060388F8BB3400F0A1FEC0E7F0260000AE
:100E80000030084000E00140F8B50446FFF788FF55
:100E9000EFF31082012383F31088234F3B681BB9C3
:100EA0002249CB704023CB703B6801333B6082F317
:100EB000108823882BB361681D4C01EBC30E06E03C
:100EC0001B01083113448E4544F8230019D00868EB
:100ED0008A88C5034FEA1223D2B2F1D502EB031C74
:100EE00054F82C601B01083120F480356FF3104654
:100EF00013448E4544F82C6044F82C5044F82300E9
:100F0000E5D1EFF31082012383F310883B6813B11E
:100F10003B68013B3B603B681BB980200349CB70B9
:100F2000C87082F31088F8BDC80A0020000D084080
:100F30000008084070B169B14A685AB108B5074A5B
:100F400003460068904207D008461A60FFF79CFFEE
:100F5000002008BD012070470E2008BD54524F509C
:100F6000F0B5076A06468BB067B3BE466C468C4642
:100F7000BEE80F003D460FC4BEE80F000FC49EE858
:100F8000030084E80300BCE80F000FC5BCE80F00B5
:100F90000FC59CE803008EE80300F36938469847C4
:100FA000336A6BB19C46EE46BEE80F00ACE80F001A
:100FB000BEE80F00ACE80F009EE803008CE80300D9
:100FC0000BB0F0BD0F46E8E7437B10B49342446892
:100FD00054D04FF0020CB4F840386FF38A23A4F8D1
:100FE0004038B4F840386CF30923A4F84038B4F81A
:100FF000423803F4E063B3F5007FF8D1022384F8AC
:10100000582842730373994215D0052916D0B4F8B5
:1010100040380A026FF38A23A4F84038B4F8403805
:1010200061F30923A4F84038B4F8423803F4E063CC
:101030009342F9D101735DF8044B70470222B4F872
:1010400040386FF38A23A4F84038B4F8403862F38C
:101050000923A4F84038B4F8423803F4E063B3F548
:10106000007FF8D1B4F8403843F48063A4F84038E6
:10107000B4F842385B05FBD50173DCE7037BC2E7BC
:10108000002856D02C4A8168034691424FD1002057
:10109000012210B41968986091F91510274C4FEA95
:1010A000511C01F01F0102FA01F10CF1200C44F86F
:1010B0002C10BFF34F8FBFF36F8F196891F9161083
:1010C0004FEA511C01F01F0102FA01F10CF1200C52
:1010D00044F82C10BFF34F8FBFF36F8F196891F94D
:1010E00017104FEA511C01F01F0102FA01F10CF137
:1010F000200C44F82C10BFF34F8FBFF36F8F59684B
:1011000081F84C08C1F82C04EFF3108482F31088A6
:1011100019680B4B0968C1F102018A4059680A43FA
:101120005A605B6884F310885DF8044B70470720B1
:1011300070470120704700BF4E41435200E100E07C
:1011400000400840002843D0002A41D070B52C4B05
:1011500084689C423AD103681C69236999423CD255
:10116000436803EB010C9CF8200840063BD49079BF
:10117000082832D89CF82008C0092BD1257B167985
:10118000146892F805E055B3022D2FD024F0604486
:10119000204320310C0140EA8E70185103EB0111FD
:1011A0000634234402F10C008C88927962F3030424
:1011B0008C8099182AB110F8012B03F8012B8B426F
:1011C000F9D1802300208CF8203870BD072070BD35
:1011D000012070474EF6632070BD032070BD0948A2
:1011E00000EA8440D5E74EF6642070BD002EF6D0AC
:1011F000A6F10106B6FA86F67609F007C6E700BF43
:101200004E4143520000FC1F2DE9F84F88B30C46B5
:1012100079B30F696FB38B685BB30646486840B318
:1012200091F91530002B24DB91F91630002B20DBCF
:1012300091F91730002B1CDB3A69202A14D812F0E0
:10124000030511D1D44BB168994200F0C6809208D1
:1012500013D07B6803EB820201E093420DD053F878
:10126000041BB1F1005FF8D34EF662252846BDE8B5
:10127000F88F01252846BDE8F88F0368013BB3F5D8
:10128000806FF1D2D0E901239A42EDD9C26893422E
:10129000EAD33878C14BC24A01281268196A00F0B3
:1012A0006C8193F82630052BDED1236803F5802866
:1012B00008F1A8084FEA0838C6F80480EFF3108C4C
:1012C000012181F31088B74A23685068C3F10203F3
:1012D00001FA03F320EA0303536053688CF3108888
:1012E0004FF00009A3683460F361E368C6F820900A
:1012F000736297F800A030464A4686F818A0FFF7B8
:1013000063FED4F804C03A7DDCF80830DCF8041041
:10131000013BDCF80CE001391B0243EA017343EAAC
:101320000A03DCF800100EF1FF3C43EA0C3397F897
:101330000CC0D20042EA4C0242F4E072A8F8402805
:10134000994A013902EA0142134302214A46C8F888
:101350004438FFF739FE4FF400728023494608EB0A
:10136000020088F8503800F0EFFC4A46D7F810E049
:10137000B968DFF844C20AE096450DD808EB0200D0
:101380000132202A01F1080180F8203827D08B791A
:10139000002BF1D00023F1E797F80CE0086891F8F2
:1013A00004A091F80590BEF1000F13D0BEF1020F1A
:1013B00000F0D6809E4620F0604343EA0E0302F11F
:1013C000200043EA8973000148F80030D7F810E0A4
:1013D0004023D3E70CEA8043F1E70E254AE75FEAB2
:1013E0009E0300F0D6804FF0000C6FF0604E4FF07F
:1013F0000F0961467A68DFF8C0B1043A02EB830353
:1014000052F8040F704510D297F80CA0BAF1000FF3
:1014100001D10BEA80404FEA810A09FA0AFA4CEA44
:101420000A0C01F5807A48F82A00934201F1010183
:10143000E6D16FEA0C030022C8F828343046114682
:10144000FFF7C2FDB8F8403843F02003A8F8403851
:10145000B8F84038C3F340129B06F9D4207D94F9C4
:101460001530524FDFF854C10001514907EB030E0C
:10147000C0B28EF8000303F1C0004CF8236051F8AD
:1014800020E062F3104E41F820E051F82000BFF355
:101490005F8F01204FEA531E4FEA8E0E03F01F03A9
:1014A0000EF1604E0EF5614E00FA03F3CEF8803176
:1014B000CEF8003094F814E094F916304FEA0E1E7E
:1014C00007EB03095FFA8EFE89F800E303F1C00E13
:1014D0004CF8236051F82E9062F3104941F82E9099
:1014E00051F82EE0BFF35F8F4FEA531E4FEA8E0E86
:1014F00003F01F030EF1604E00FA03F30EF5614E88
:10150000CEF88031CEF80030237D94F917401B01CE
:101510002744DBB287F8003304F1C0034CF82460A1
:1015200051F8237062F3104741F8237051F82330CB
:10153000BFF35F8F63099B0004F01F0403F1604356
:10154000A04003F56143C3F8800118603E214FF0CD
:10155000FF32114B88F84C18C8F82C24B36089E688
:10156000BAF1000F3FF436AFAAF1010EBEFA8EFEBB
:101570004FEA5E1E4FEACE7E1DE7C1F3026302FA18
:1015800003F3C1F302210B4ACB409342BFF48DAE6B
:101590006AE64FF0FF334EE74E41435200E0014010
:1015A000540C0020004008400000FF0300E100E070
:1015B0000060004000366E010000FC1FCC0A0020D5
:1015C00030B58BB0EFF30383103B304A5BB2C033CE
:1015D00052F823106FF3104142F8231052F82330D1
:1015E000EFF303832A48103B5BB250F823502822C4
:1015F0000021684600F0A8FB00206C6894F84D3884
:1016000084F84D08DBB2ADF80430B4F84218C1F3E9
:101610000012C90638D543F02003ADF80430022388
:1016200094F8532884F8533894F85238D2B203F01F
:101630001F0384F85328E11891F8202860F38202F0
:1016400081F820282A686946126803936B6A284645
:1016500004930092FFF784FCB4F84238DB0611D5FE
:101660002B681A69127D6AB193F91530002B09DBDA
:1016700001215A09074803F01F03403201FA03F31E
:1016800040F822300BB030BD1346DBE7006000406D
:10169000CC0A002000E100E02DE9F0418AB0EFF330
:1016A0000383103B3E4A5BB2C03352F823106FF302
:1016B000104142F8231052F82330EFF303854FF422
:1016C00080620021374B103D6FB253F8270005F0C0
:1016D000FF05D0E90084ADF8042094F8533884F86D
:1016E000531894F85268DBB206F01F0606F1200288
:1016F00084F853381301E15854F803C0C1F38073E0
:101700008DF81930D8F810301B7B43EADC7303F0F6
:1017100001038DF81830002B3ED1C1F38A410591A9
:1017200004EB0212938803F00F03082B9C4628BF9A
:101730004FF0080C8DF81AC06BB100230DF11F0299
:1017400004EB061E0EEB030191F80612013363450C
:1017500002F8011FF6D1D8F8003003960093442315
:10176000264486F820380023426A6946079304928B
:10177000FFF7F6FBB4F84238DB070AD5002F08DB89
:1017800001226B09084905F01F054033AA4041F8C2
:1017900023200AB0BDE8F08121F06041BFE700BF1F
:1017A00000600040CC0A002000E100E070B58AB083
:1017B000EFF30383103B234A5BB2C03352F823108C
:1017C0006FF3104142F8231052F82330EFF30383F4
:1017D000012600214FF4006C1B4A103B5BB252F80B
:1017E0002350D5E90034186894F8532884F85368D6
:1017F00094F85238D2B203F01F030393234484F8C1
:10180000532883F8201883F820186B6A00906946E3
:1018100028460493ADF804C0FFF7A2FBB4F84238A1
:101820009B070DD52B6893F91730002B08DB5A095D
:10183000064903F01F039E4002F1400341F8236074
:101840000AB070BD00600040CC0A002000E100E05A
:10185000064B074993F826001A6A51F82030C2F364
:1018600002620449D3400B60704700BF00E00140B2
:1018700038010020540C0020704700BFF8B54AF230
:10188000035001234249434AA1F8FE03A2F8043160
:10189000B2F804319BB2002BFAD101204FF400457D
:1018A0004FF0090C3C4CDFF80CE13C4EC4F804E06E
:1018B000DFF804E13649C4F80CE0394FA2F8000122
:1018C000384AB06030606261276091F82620A560D8
:1018D0002561086A54F82220334EC0F30260C240EA
:1018E000326081F8133481F8A2C091F880341BB9BA
:1018F00091F88134990746D0254D95F88034002B16
:1019000036D00022224B83F8812483F880240023E0
:101910001F4981F8323091F83C301A07FBD543F269
:10192000021000231A4A088581F82A3092F83C30C8
:101930009B06FBD5012005231649F12581F81C01E2
:101940001A49116282F8263092F82630106A54F84B
:101950002310C0F30260C14000243160F0204FF436
:101960002541134B1D731C721873A2F8FE13F8BDAA
:101970000121C82085F8801400F088F895F880349B
:10198000012BFBD1BDE74FF47A70FFF775FFBEE77F
:1019900000E0014000C0014038010020007000401C
:1019A000002D310100C2EB0B540C0020211202214A
:1019B0000020004000127A0000366E0138B5002584
:1019C000284C0121C82084F8285000F05FF884F8E2
:1019D000245094F82430002BFBD194F82430214972
:1019E00043F0020384F8243091F82430C3F340001C
:1019F0009B07F9D41B4A81F8220092F8223003F0A9
:101A0000FF00002BF9D192F84030164960F3C7135C
:101A100082F8403091F84030DB09FBD191F8420068
:101A2000104A63F3C71081F8420092F84230DB0994
:101A3000FBD192F844000B4963F3C71082F84400CD
:101A400091F84430C3F3C014DB09F9D1012000F050
:101A5000E5F8054B012083F8BB44BDE8384000F0B1
:101A6000ADB800BF0030084000E00140034618B1A7
:101A7000024A00201A6070470120704700000604E7
:101A8000A0F101000028FBD1704700BF4FF47A732A
:101A900010B400FB01F1114C114A2468B2FBF4F2BE
:101AA000A1FB03043CB9B0FBF2F0800860B15DF823
:101AB000044BFFF7E5BF9200B1FBF2F1A1FB03136A
:101AC0002BB908460028F2D15DF8044B70474FF05F
:101AD000FF3C5DF8044B6046FFF7D2BF540C00207A
:101AE00000CA9A3B70B500240A4B0B4EB3F8405124
:101AF000ADB225FA04F3DB0704D556F82430E0B282
:101B000003B198470134102CF3D1024BA3F83051A4
:101B100070BD00BF00600040880A002030B56FF043
:101B2000FF0585B0032000F079F84FF0FF311F4C1E
:101B30001F482246856400230125CDE90111039148
:101B400004F1C00E32F8020F590960B104A800EB8D
:101B5000810151F80C0C03F01F0C05FA0CFC20EA73
:101B60000C0041F80C0C964503F10103EAD10199F0
:101B7000104B0F4A03201167C3F880120299516776
:101B8000C3F8841203999167C3F8881200F016F81D
:101B90000023094803F1C00234F8021F0133602B0F
:101BA00040F82210F6D105B030BD00BF2E2600004F
:101BB0000080004000E100E000600040EFF3108191
:101BC000012383F31088124B33F8102092B22AB10C
:101BD00033F81020013A92B223F8102033F8103075
:101BE0009BB293B90B4A10B4B2F8FE330A4C9BB2C5
:101BF00034F8100043F4254323EA0003A2F8FE332F
:101C000081F310885DF8044B704781F310887047AA
:101C10004C0C002000E00140F826000030B4EFF347
:101C20001081012383F310880E4A32F810309BB2E2
:101C30006BB90D4C0D4DB4F8FE3335F810C09BB2A6
:101C400043EA0C0343F425439BB2A4F8FE3332F875
:101C5000103001339BB222F8103081F3108830BC71
:101C6000704700BF4C0C002000E00140F826000047
:101C700000BE704708B500F003F8FFF78BF8FEE7E9
:101C80004FF4700270B5254B254CC3F88820002016
:101C90009C60FFF773F8FFF7F1FD0120FFF76EF886
:101CA0002368A3F5806383F30A881E481E4A002137
:101CB000121A00F049F81D481D4A1E49121A00F078
:101CC0005DF81D4D1D4B5B1B002B07DD00249E1096
:101CD00055F8043B01349847A642F9DCFFF7B8FDFC
:101CE000FFF76CFE0320FFF799FF00234FF6FF700C
:101CF000134903F108020133092B21F81200F8D12E
:101D00000320FFF75BFF0220FFF738F8FFF706FF1D
:101D1000BDE87040002000F015B800BF00ED00E005
:101D20000000000058010020580C00200000002096
:101D3000380100202C270000300100203401002051
:101D4000000D0840704700BF02440346934200D193
:101D5000704703F8011BF9E710B56AB1013984181F
:101D600010F8012B11F8013F9A4203D1A04201D093
:101D7000002AF5D1D01A10BD1046FCE70A44431ED4
:101D8000914200D1704710B511F8014B914203F810
:101D9000014FF9D110BDFFFF4275696C742077695E
:101DA00074682052656E6573617320416476616E5C
:101DB00063656420466C657869626C6520536F6664
:101DC0007477617265205061636B61676520766529
:101DD0007273696F6E20342E362E3000342E362EFC
:101DE0003000000000000604F8B500BFF8BC08BCD5
:101DF0009E467047F8B500BFF8BC08BC9E467047C9
:101E00005465726D696E616C00FFFFFF0000000099
:101E100000005454522052454747455300FFFFFFEE
:101E20003031323334353637383941424344454610
:101E3000312E31000D0A2A2A2A2A2A2A2A2A2A2A57
:101E40002A2A2A2A2A2A2A2A2A2A2A2A2A2A2A2AF2
:101E50002A2A2A2A2A2A2A2A2A2A2A2A2A2A2A2AE2
:101E60002A2A2A2A2A2A2A2A2A2A2A2A2A2A2A2AD2
:101E70002A2A2A2A2A2A2A2A0D0A2A2020205265BA
:101E80006E6573617320465350204578616D706CA8
:101E9000652050726F6A65637420666F7220725F8E
:101EA00063616E204D6F64756C65202020202020BA
:101EB00020202020202020202020202A0D0A2A2037
:101EC00020204578616D706C652050726F6A656383
:101ED000742056657273696F6E2025732020202050
:101EE00020202020202020202020202020202020F2
:101EF00020202020202020202020202020202A0DEB
:101F00000A2A202020466C657820536F667477611A
:101F10007265205061636B2056657273696F6E2025
:101F20002025642E25642E256420202020202020BA
:101F300020202020202020202020202020202020A1
:101F400020202020202A0D0A2A2A2A2A2A2A2A2A60
:101F50002A2A2A2A2A2A2A2A2A2A2A2A2A2A2A2AE1
:101F60002A2A2A2A2A2A2A2A2A2A2A2A2A2A2A2AD1
:101F70002A2A2A2A2A2A2A2A2A2A2A2A2A2A2A2AC1
:101F80002A2A2A2A2A2A2A2A2A2A0D0A5265666514
:101F90007220746F20726561646D652E7478742090
:101FA00066696C6520666F72206D6F72652064656E
:101FB0007461696C73206F6E204578616D706C651B
:101FC0002050726F6A65637420616E640D0A465317
:101FD0005020557365722773204D616E75616C20BA
:101FE000666F72206D6F726520696E666F726D61CB
:101FF00074696F6E2061626F757420725F63616EC9
:10200000206472697665720D0A0000000D0A54683A
:1020100069732070726F6A6563742064656D6F6E9A
:10202000737472617465732074686520626173698A
:10203000632066756E6374696F6E616C6974792074
:102040006F662043414E206D6F64756C65206F6E26
:102050002052656E65736173205241204D43557364
:10206000207573696E67203220524120626F617261
:1020700064732E0D0A4F6E207072657373696E67FC
:1020800020616E79206B6579206F6E207468652001
:102090005254545669657765722C206461746120CE
:1020A0006973207472616E736D69747465642066FF
:1020B000726F6D20426F6172643120746F20426FC5
:1020C000617264322E0D0A4F6E2072656365707402
:1020D000696F6E2C20426F61726432206469737084
:1020E0006C617973207468652072656365697665D3
:1020F000642064617461206F6E207468652052549E
:10210000545669657765722E20426F617264322C75
:10211000207468656E2C207472616E736D697473BF
:10212000207468650D0A6672616D6564206461746F
:1021300061206261636B20746F20426F6172643151
:102140002E204F6E207375636365737366756C2004
:102150007472616E736D697373696F6E2C20426F58
:1021600061726431207072696E74732074686520C6
:1021700064617461206F6E20746F207468652052F2
:1021800054545669657765722E0D0A000D0A434155
:102190004E204F70656E20415049206661696C6524
:1021A000640000005B4552525D20496E2046756E0A
:1021B0006374696F6E3A20257328292C20257300DB
:1021C0000D0A52657475726E6564204572726F7285
:1021D00020436F64653A203078257820200D0A006E
:1021E0000D0A546F2073746172742043414E207441
:1021F00072616E736D697373696F6E2C20706C659C
:1022000061736520656E74657220616E79206B65FF
:1022100079206F6E205254545669657765720D0AA5
:10222000000000000D0A205472616E736D697474B1
:10223000696E672074686520646174610000000045
:102240000D0A2043414E2057726974652041504960
:10225000204641494C4544000D0A202A2A43414E5C
:1022600020436C6F736520415049206661696C653D
:10227000642A2A000D0A2043414E207472616E7355
:102280006D697373696F6E2069732073756363651D
:10229000737366756C0000000D0A20546F20737410
:1022A0006172742043414E207472616E736D697364
:1022B00073696F6E2C20706C6561736520656E7438
:1022C000657220616E79206B6579206F6E205254A3
:1022D000545669657765720A000000000D0A2043B4
:1022E000414E207265636569766564207468652077
:1022F00064617461203A2025730D0A000D0A205292
:1023000065636569766564202754585F5F4D455362
:1023100047272C20726573706F6E64696E67207733
:10232000697468202752585F5F4D455347270D0A4F
:102330000000000043414E207472616E736D69733A
:1023400073696F6E206661696C65642064756520D1
:10235000746F2074696D656F757400000D0A2043F9
:10236000414E207472616E736D697373696F6E2074
:10237000616674657220726563656976652069734C
:10238000207375636365737366756C000D0A205264
:10239000656365697665642041636B6E6F776C6514
:1023A0006467652E0D0A2043414E206F706572618F
:1023B00074696F6E205375636365737366756C0D16
:1023C0000A0000000D0A43414E2064617461206DD3
:1023D00069736D617463680D0A2043414E206F700C
:1023E00065726174696F6E206661696C65640D0A5F
:1023F0000000000054585F5F4D45534700FFFFFF4A
:1024000063616E5F6465696E697400FF68616C5F2B
:10241000656E74727900FFFF4F4B454C4100000020
:102420000100000020010020E10C0000000000007D
:10243000382400000200010200000000000100201A
:10244000000000200000000020000000000000004C
:1024500000000000000000003A00000060240000BE
:10246000008000000000000000800000010000006B
:102470000080000003000000004000000500000094
:10248000004000000600000000800000070000007F
:102490001040000008000000008000000E00000056
:1024A000008000000F000000000001040001000097
:1024B000000001040101000004000000050100000B
:1024C00000000100080100000000010009010000F7
:1024D000000001000A010000040000000B010000E0
:1024E000040000000F0100000000010602020000CD
:1024F00000000106030200000000010604020000C3
:1025000000000106050200000000010606020000AE
:1025100000000106070200000000010000030000A7
:102520000000010602030000040000000303000095
:102530000400000004030000000001110503000076
:102540000000011106030000000001110703000054
:102550000000011108030000000001110903000040
:10256000000001110A030000040000000B0300003A
:102570000400000000040000040000000404000047
:10258000000001130704000000000103080400001C
:102590001040000009040000104000000E0400007C
:1025A000040000000F0400000000011300050000FB
:1025B0000000011301050000008000000505000077
:1025C0000080000006050000000401070B05000064
:1025D000000401070C050000400001050106000091
:1025E000400001050206000000000110090600007D
:1025F000000001100A060000040000000B060000A5
:10260000040000000C0600000400000008070000A1
:102610000400000009070000040000000A07000091
:10262000040000000C070000040000000D0700007B
:10263000A600A900AA00A700A80000000000000052
:10264000000000000000000000000000000000008A
:10265000000000000000000000000000000000007A
:10266000000000000000000000000000000000006A
:10267000000000000000000000000000000000005A
:10268000000000000000000000000000000000004A
:10269000000000000000000000000000000000003A
:1026A000000000000000000000000000000000002A
:1026B000000000000000000000000000000000001A
:1026C000000000000000000000000000000000000A
:1026D00000000000000000000000000000000000FA
:1026E00000000000000000000000000000000000EA
:1026F000020403040404FFFF0100020008001000AC
:102700001000000000000000017A5200027C0E015F
:102710001B0C0D001000000018000000000000005D
:0C2720001000000000000000000000009D
:10272C000000000000010100010000000000010099
:10273C000200000000000000030000000000000088
:10274C000400000000000000050000000000000074
:10275C000600000000000000070000000000000060
:10276C00080000000000000009000000000000004C
:10277C000A000000000000000B0000000000000038
:10278C000C000000000000000D0000000000000024
:10279C000E000000000000000F0000000000000010
:1027AC0010000000000000001100000000000000FC
:1027BC0012000000000000001300000000000000E8
:1027CC0014000000000000001500000000000000D4
:1027DC0016000000000000001700000000000000C0
:1027EC0018000000000000001900000000000000AC
:1027FC001A000000000000001B0000000000000098
:10280C001C000000000000001D0000000000000083
:10281C001E000000000000001F000000000000006F
:10282C00FFFFFF1FFFFFFF1FFFFFFF1FFFFFFF1F2C
:10283C00FFFFFF1FFFFFFF1FFFFFFF1FFFFFFF1F1C
:10284C00050000000E000000050000000400000060
:08285C006D02000045020000BE
:020000040100F9
:10A10000FFFFFFFFFFFFFFFFFFFFFFFFFFFFFFFF5F
:04A13400FFFFFFFF2B
:10A20000FFFDFFFFFFFFFFFFFFFFFFFFFFFFFFFF60
:10A21000FFFFFFFFFFFFFFFFFFFFFFFFFFFFFFFF4E
:10A22000FFFFFFFFFFFFFFFFFFFFFFFFFFFFFFFF3E
:10A23000FFFFFFFFFFFFFFFFFFFFFFFFFFFFFFFF2E
:10A24000FFFFFFFFFFFFFFFFFFFFFFFFFFFFFFFF1E
:10A25000FFFFFFFFFFFFFFFFFFFFFFFFFFFFFFFF0E
:10A26000FFFFFFFFFFFFFFFFFFFFFFFFFFFFFFFFFE
:10A27000FFFFFFFFFFFFFFFFFFFFFFFFFFFFFFFFEE
:10A28000F8F8FFFFFFFFFFFFFFFFFFFFFFFFFFFFEC
:10A29000FFFFFFFFFFFFFFFFFFFFFFFFFFFFFFFFCE
:10A2A000FFFFFFFFFFFFFFFFFFFFFFFFFFFFFFFFBE
:10A2B000FFFFFFFFFFFFFFFFFFFFFFFFFFFFFFFFAE
:10A2C000FFFFFFFFFFFFFFFFFFFFFFFFFFFFFFFF9E
:0400000300001C7568
:00000001FF
